:100000000C942A000C94A9010C9447000C9447000E
:100010000C9447000C945F010C9447000C9447002B
:100020000C9447000C9447000C9447000C94470034
:100030000C9447000C9447000C9447000C94470024
:100040000C9447000C9447000C9447000C94470014
:100050000C94470011241FBECFE5D8E0DEBFCDBF12
:1000600010E0A0E6B0E0E4EEF4E002C005900D92EE
:10007000A437B107D9F710E0A4E7B0E001C01D92A2
:10008000A33FB107E1F70E942A020C9470020C947E
:100090000000FB019F01E8944230C4F04532B4F403
:1000A0004A3029F497FB1EF4909581959F4F642F59
:1000B00077270E945C02805D8A330CF0895D819312
:1000C000CB010097A1F716F45DE251931082C901AC
:1000D0000C946A00DC01FC01672F71917723E1F732
:1000E000329704C07C916D9370836291AE17BF0705
:1000F000C8F30895089508950895089508950895FA
:100100000895089508950895089508950895089507
:1001100008950895089508950895089508950895F7
:1001200008950895089508950895089508950895E7
:100130000895089540E050E0FA01EE0FFF1FE40F2C
:10014000F51FEE0FFF1FEC58FF4F6581613079F40A
:10015000828193810196938382832281338180817E
:1001600091812817390719F41382128264834F5F33
:100170005F4F4A30510501F7089590E0FC01EE0F02
:10018000FF1FE80FF91FEE0FFF1FEC58FF4F138200
:1001900012821182108214821582089590E0FC016F
:1001A000EE0FFF1FE80FF91FEE0FFF1FEC58FF4F78
:1001B00080819181892B31F4718360831382128253
:1001C00014821582089540E050E0FA01EE0FFF1FFF
:1001D000E40FF51FEE0FFF1FEC58FF4F65816130F4
:1001E00079F4828193810196938382832281338182
:1001F000808191812817390719F413821282648350
:100200004F5F5F4F4A30510501F7089590E0FC01C0
:10021000EE0FFF1FE80FF91FEE0FFF1FEC58FF4F07
:100220008481882311F0148281E0089590E0FC011C
:10023000EE0FFF1FE80FF91FEE0FFF1FEC58FF4FE7
:1002400080819181892B11F081E08583089590E070
:10025000FC01EE0FFF1FE80FF91FEE0FFF1FEC5818
:10026000FF4F1582089590E0FC01EE0FFF1FE80F8D
:10027000F91FEE0FFF1FEC58FF4F138212820895F3
:100280000E945C018AE990E00E945D0180E090E0BC
:10029000FC01EE0FFF1FE80FF91FEE0FFF1FEC58D8
:1002A000FF4F1382128211821082148215820196EE
:1002B0008A30910569F708950895089508951F9269
:1002C0000F920FB60F9211240F900FBE0F901F9038
:1002D0001895089508950895089508950895089526
:1002E0000895089508950895089508950895089526
:1002F0000895089508950895089508950895089516
:100300000895089508950895089508950895089505
:1003100008950895089508950895089508950895F5
:1003200008950895089508950895089508950895E5
:1003300008950895089508950895089508950895D5
:1003400008950895089508950895089508950895C5
:1003500008951F920F920FB60F9211240F900FBEA7
:100360000F901F901895DF92EF92FF920F931F93BB
:10037000DF93CF9300D0CDB7DEB7F82EE62ED42E84
:1003800082E066E00E948E018F2D6AE00E9450029A
:1003900090E08E010F5F1F4FB8014AE050E00E94CD
:1003A0004900C8010E9490018F2D6AE00E9450020E
:1003B000892F90E0B8014AE050E00E944900C8014E
:1003C0000E94900182E069E00E948E018E2D6AE019
:1003D0000E94500290E0B8014AE050E00E944900BB
:1003E000C8010E9490018E2D6AE00E945002892F60
:1003F00090E0B8014AE050E00E944900C8010E9424
:10040000900182E06CE00E948E018D2D6AE00E94D6
:10041000500290E0B8014AE050E00E944900C80153
:100420000E9490018D2D6AE00E945002892F90E079
:10043000B8014AE050E00E944900C8010E949001C2
:100440000F900F90CF91DF911F910F91FF90EF9040
:10045000DF900895CF93DF9312BA0E9440010E946B
:100460008B010E94920181E062E00E948E0180E196
:1004700097E228EC30E0F9013197F1F70197D9F7CD
:100480007894C8ECD0E080E060E670E00E949301D0
:1004900088E893E1FE013197F1F70197D9F7F3CF9F
:1004A000991B79E004C0991F961708F0961B881FC6
:1004B0007A95C9F780950895AA1BBB1B51E107C027
:1004C000AA1FBB1FA617B70710F0A61BB70B881FE4
:1004D000991F5A95A9F780959095BC01CD01089573
:0404E000F894FFCFBE
:1004E400041F1111111F1F1F2C002B002A00400094
:0404F400400029009B
:00000001FF
